S00E00004C6162322D632E7372656345
S11300000C945A000C9477000C9477000C947700AD
S11300100C9477000C9477000C9477000C94770080
S11300200C9477000C9477000C9477000C94770070
S11300300C9477000C9477000C9477000C94770060
S11300400C9477000C9477000C9477000C94770050
S11300500C9477000C9477000C9477000C94770040
S11300600C9477000C9477000C9477000C94770030
S11300700C9477000C9477000C9477000C94770020
S11300800C9477000C9477000C9477000C94770010
S11300900C9477000C9477000C9477000C94770000
S11300A00C9477000C9477000C9477000C947700F0
S11300B00C94770011241FBECFEFD8E0DEBFCDBF74
S11300C011E0A0E0B1E0E4E2F1E002C005900D929D
S11300D0A430B107D9F721E0A4E0B1E001C01D923A
S11300E0A630B207E1F70E9479000C9490000C94BA
S11300F00000CF93DF93CDB7DEB72091020130919A
S113010003018091000190910101820F931F90934C
S113011005018093040180E090E0DF91CF91089580
S1070120F894FFCF7D
S107012401000200D0
S9030000FC
