:020000020000FC
:1000000000241124222433244424552466247724F4
:1000100088249924AA24BB24CC24DD24EE24FF24A4
:1000200000271127222733274427552766277727BC
:1000300088279927AA27BB27CC27DD27EE27FF276C
:1000400000E00093C50007E60093C40008E10093B8
:10005000C10006E00093C20000D076D07AD00C94A4
:100060002F00D7D0A0E0B1E02D903D90F1D002D08C
:10007000ECD0089501E0112702151305CCF419D036
:10008000CF93DF93CA1BDB0BD695C7952C1A3D0A7D
:10009000201A310A2F923F923D2E2C2EEBDF3F90FB
:1000A0002F90BF91AF91A00FB11FA00FB11FE2DF42
:1000B00008950A2E1B2ECA2FDB2F4D905D9011271D
:1000C00001E07724602E6214730461F0CD90DD901E
:1000D000C414D50410F00C946E001BD0600E711E79
:1000E0000C94630001D00895E990F990C01BD10BE6
:1000F000C01BD10BA02DB12DED92FD9249925992CA
:10010000C01BD10BC01BD10BA01BB10BA01BB10B93
:100110000895FE90FE90C00FD11FC00FD11FE9902F
:10012000F990C01BD10BC01BD10B2D913D91A01B91
:10013000B10BA01BB10BED92FD9229933993C01B1B
:10014000D10BC01BD10B089583D0AEEFB8E073D0B4
:100150000895AEEFB8E0112701E08D919C917727CB
:1001600066276817790739F007D0112701E0600F7B
:10017000711F0C94B10008954CD06AD002D065D0A4
:100180000895A0E0B1E0C4E0D1E0EE27FF270D9094
:100190001D90202D312D2E902E90A00DB11DA00D63
:1001A000B11D0A2E1B2EA2E0B1E0222433244424E8
:1001B0005524112701E0201B310B66247724621699
:1001C0007306E9F00A161B0671F0EA2FFB2F2D903B
:1001D0003D90499059902414350410F40C94E20099
:1001E0000FD00C94E200A2E0B1E0D1E0C4E0600ED8
:1001F000711E001A110A001A110A0C94DF000895EA
:10020000422D532D352C242C219231924193519320
:100210000895A0E0B1E01CD00ED000900001109035
:100220000101EE27FF270E161F0621F004D031969C
:100230000C941301089516D01D9314D01D930895A6
:100240000D9109D00D9107D008950FEF04D00895B6
:1002500000EF01D008951091C00015FFFCCF00936E
:10026000C60008951091C00017FFFCCF1091C60082
:1002700008956400C3CA38ADBC79FC8E3ABD53837F
:1002800069CB676355C409C0C55AD301C040363F26
:100290009DEAF89E9CEA155107FE58EE66CAEC9A54
:1002A000123E0DF6A27BE60B932F78244C9AF78131
:1002B0000490713EF5A8BDBE091CFBFDD54A8924FA
:1002C000FD2700A15334D6ECD760FDC1115D5577F1
:1002D0000C0DBC51BB78013935E45A82AED9927409
:1002E000EA5F922D5A96D1BBC64B412EBAB6FC217D
:1002F00085F8A16AEE5F6BDB2A7533716DE282F4DB
:10030000EE970951D7570EFE75D6B6AFDA13BA4D30
:100310000027EBE97D7B315B113DF28C2EEF378AB4
:10032000C7F725F4D3EE82648FB03DD685229E3E7A
:10033000672B369AD0889EBF8178433BA0E0B1E01E
:10034000E2E7F2E00ED00090000110900101CC270E
:10035000DD270C161D0621F004D021960C94A9016E
:0C036000089505910D9305910D930895EB
:00000001FF
