:020000020000FC
:1000000000241124222433244424552466247724F4
:1000100088249924AA24BB24CC24DD24EE24FF24A4
:1000200000271127222733274427552766277727BC
:1000300088279927AA27BB27CC27DD27EE27FF276C
:1000400000E00093C50007E60093C40008E10093B8
:10005000C10006E00093C20000D003D006D00C948B
:100060002F00AEEFB8E071D00895AEEFB8E01127E1
:1000700001E08D909C90AA24BB24A814B90439F007
:1000800007D0112701E0A00EB11E0C943D00089589
:100090004BD002D064D00895A0E0B1E0C4E0D1E03C
:1000A000EE27FF270D901D90202D312D2E902E90A4
:1000B000A00DB11DA00DB11D0A2E1B2EA2E0B1E0B6
:1000C0002224332444245524112701E0201B310B22
:1000D0006624772462167306E9F00A161B0671F08F
:1000E000EA2FFB2F2D903D90499059902414350410
:1000F00010F40C946D000FD00C946D00A2E0B1E0F0
:10010000D1E0C4E0600E711E001A110A001A110A33
:100110000C946A000895422D532D352C242C2192E5
:100120003192419351930895A0E0B1E00ED0009038
:10013000000110900101EE27FF270E161F0621F087
:1001400004D031960C949D00089516D01D9314D0C0
:100150001D9308950D9109D00D9107D008950FEFCB
:1001600004D0089500EF01D008951091C00015FF4C
:10017000FCCF0093C6000895F5DF1091C00017FF73
:10018000FBCF1091C600089564006F1836C67FA794
:10019000F68D0CB7B970EB7582342DAF43E6861C33
:1001A000B2CCDF931419FBF227C8A2B780AE07D9EF
:1001B000B7BB6D623BFC070DC333C622345D1972B9
:1001C0008FC8DD16B79093C153EBB35DEE2391BF9B
:1001D000AA734D8F7A498D73F784CDC7A9E76ABAA0
:1001E0002CF6565FFB7B5E16DD78BDE5EAAB58BCAE
:1001F0002D0FF0070E599387127A12F1D8903D9483
:100200000AAF99D40F744531556C3CB0F2DEE3CBA4
:1002100032EDA4A7AA820BC36BDC5021D690758F58
:1002200076C2DC32F11978A5C2D5039396B3981043
:10023000E161C745A211E9417D61647363852316BD
:10024000CB997609ABB92084EE7F43B3FCA4088434
:1002500064F4A0E0B1E0E8E8F1E00ED00090000125
:1002600010900101CC27DD270C161D0621F004D0CB
:1002700021960C943401089505910D9305910D93E9
:020280000895DF
:00000001FF
