:020000020000FC
:080000000C9400010C943A017C
:100200000E9404010C945D01009003000092000123
:100210000092010101D00895E4E1F3E001D00895D6
:10022000E03011F40C941201F03039F4EEEEE0936A
:100230000001E09301010C941B01EF1729F4E1E0A8
:10024000E09300010C9422013AF4EFEFE0930001F7
:10025000E09301010C942A0101D00895009003005D
:100260000394EF1BEAF70A94EF0F00920001E0936A
:10027000010108950C943A0100241124222433240E
:10028000442455246624772488249924AA24BB2452
:10029000CC24DD24EE24FF24002711272227332736
:1002A000442755276627772788279927AA27BB271A
:1002B000CC27DD27EE27FF27AAD091D0B1E0A0E020
:1002C0002D903D9002D00C94630101E0112702159E
:1002D0001305CCF419D0CF93DF93CA1BDB0BD69553
:1002E000C7952C1A3D0A201A310A2F923F923D2EB3
:1002F0002C2EEBDF3F902F90BF91AF91A00FB11F3D
:10030000A00FB11FE2DF08950A2E1B2ECA2FDB2F8C
:100310004D905D90112701E07724602E62147304E4
:1003200061F0CD90DD90C414D50410F00C949901C7
:100330001BD0600E711E0C948E0101D00895E990BF
:10034000F990C01BD10BC01BD10BA02DB12DED928C
:10035000FD9249925992C01BD10BC01BD10BA01B1F
:10036000B10BA01BB10B0895FE90FE90C00FD11FE2
:10037000C00FD11FE990F990C01BD10BC01BD10B4E
:100380002D913D91A01BB10BA01BB10BED92FD92E5
:1003900029933993C01BD10BC01BD10B08951400B6
:1003A0005E3E819D2FFF036A0730DA71D4B0EC9274
:1003B000ADD1E7F83EF1396455DD4FE02006550236
:1003C0004DAF63806B3322BD0A00A235FA945CBE48
:1003D00029B03DE462329AB89AFB87869196A0E0F4
:1003E000B1E0EEE9F3E00ED00090000110900101C1
:1003F000CC27DD270C161D0621F004D021960C9485
:10040000FA01089505910D9305910D93089500E06B
:10041000D5E0C1E0A0E0B1E0AC17BD0719F00D9345
:060420000C940C0208958B
:00000001FF
